:020000040000FA
:10000000FC7F00204D0600003D0600004106000078
:1000100000000000000000000000000000000000E0
:100020000000000000000000000000004506000085
:10003000000000000000000049060000C1070000A9
:1000400010B5064C2378002B07D1054B002B02D0AE
:10005000044800E000BF0123237010BD5C000020B5
:10006000000000009419000008B5084B002B03D0D5
:100070000748084900E000BF07480368002B03D089
:10008000064B002B00D0984708BDC046000000007A
:1000900094190000600000205800002000000000BB
:1000A000154A164B1178002909D115491878097895
:1000B0004118C9B21970802012498002C8611178B4
:1000C0000131C9B211701978F02902D819780929BB
:1000D00009D80B4908784042C0B2087018780978EE
:1000E0004118C9B2197012781B789A4203D1802244
:1000F000044B9202DA617047780000200100002072
:10010000000000200044004110B5C3699C07FCD4E6
:1001100003680224A3430360C46901231C42FBD18A
:100120000468234303600368DC07FCD4C46901232B
:100130001C42FBD1C469DC401C42F7D1084B1A4376
:100140000260C3695A07FCD4C0239B0243608181CB
:10015000C3699C07FCD4036802221343036010BDEB
:1001600004000040037EDA07FCD5018570470000DB
:10017000027E01235107FBD5428B1A4207D1428BE5
:10018000DA401A4203D1428B92081A4202D0034B42
:1001900001221A70008DC0B27047C046790000205D
:1001A00070B50368041C988B1A1C0821FF320842A2
:1001B00028D0988B174D0143802099839872112382
:1001C00053704021144B917150715E68C0202E40D5
:1001D000800506435E605E693540284358610F48DC
:1001E00018600F4818615D680E4828408025AD02F0
:1001F000284358605868800B800358600023517171
:10020000237105E0137ADA0602D5201C00F012FBF8
:10021000207970BDFFFFFF8F98010020980000201B
:1002200018010020FF3F00F0002303714371044BCD
:10023000016083600B78022213430B707047C04645
:10024000A101000038B5364B2021DA6901200A43AC
:10025000DA61344B06241A7802431A70324B0F22AB
:100260001978914319701978214319702F490C7826
:100270002043087019780A401A701A7860210A43DE
:100280001A702B4B2B4A5A805A7852B2002AFBDB49
:10029000294B01211A780A431A709A78D107FCD4A5
:1002A00026480268510B1F221140914200D10521BE
:1002B00011408C011D8D2249294021431985046874
:1002C000A10C0A401F2A00D11D221C8D1F210A40AB
:1002D0008C4322431A8502680721D20D0A408A42C4
:1002E00000D103220A40188D1103164A02400A4326
:1002F0001A8519787F220A401A701A780421124848
:100300000A431A7058621A890C218A431A811A8981
:1003100001218A431A810021802201F0BAF938BDF7
:1003200000040040584400413C440041594400410D
:10033000000C004006400000005000412460800096
:100340003FF8FFFFFF8FFFFF98010020F7B5141C57
:10035000234A5F0101971D1CD319061C5869271CED
:100360004000400F03301033C74006D00F1C8022DE
:10037000596812060A435A6009E02F1C7B1E9F41F0
:10038000184BBF01FF18381C221C01F079F90199A4
:100390001348083542181761131C5269A104920BC7
:1003A000890C92030A435A6159690F4A02200A4094
:1003B0005A616B01F318D979032211400143D879AE
:1003C0009043021C0A43DA715979802252420A434F
:1003D0005A716B01F318DB799A07FAD5201CFEBD20
:1003E0009801002018010020FF3F00F0F8B51E4ED4
:1003F000041C3378151C002B12D11C4B1C4A1A64A8
:100400005A6C920B92035A64586C1A4A02405A640E
:10041000A2235B00E25C40200243E25401233370DC
:100420004827FF37E25D012313401AD00F4B5A6C67
:100430009204920CAA4202D25D6CAD04AD0C081C71
:100440002A1C0B4901F01CF9E25D03231A4001212B
:100450000A43E15D99430B1C1343E35500233370BA
:1004600000E01D1C281CF8BD7A0000209801002027
:10047000D8000020FF3F00F0FF30827930239A43FC
:10048000131C2022002900D11022134383717047CE
:100490000C4BFF305A690221920B92035A61027A87
:1004A00003231A400A43017A99430B1C1343037236
:1004B000827980235B4213438371037A9A07FCD5C8
:1004C0007047C0469801002080235B421943C9B29F
:1004D0008172704770B5A02303225B00C254134B96
:1004E000134A5C6CC021144089050C4346255C64AA
:1004F000FF35402444550F4D30261D6490256D0076
:1005000046555D6B15402943922559636D00802146
:100510004155094D1D63B0256D0044555C6F224067
:100520005A67B2235B00C15470BDC04698010020D9
:10053000FFFFFF8FD80000205801002030B5364A59
:100540001E235168082099430223194351603349FF
:100550008A6902438A613248324A9082908A034310
:100560009382D3689807FCD52F4B01201870187818
:10057000C40704D52C48407840B20028F7DB01209E
:100580009860587840B20028FBDB284C264844602D
:10059000587840B20028FBDB82242348E4014480E1
:1005A000587840B20028FBDB908C8024A0439084D4
:1005B000D068C506FCD51E4C1A48C462D4681948D8
:1005C000E506FBD5848C1B4D2C438484D4681548E8
:1005D000E506FBD5848C02252C438484D068040670
:1005E000FCD51048C0684506F8D5D068C406FCD5CF
:1005F00000229A605A7852B2002AFBDB0E480A4A5F
:1006000050605A7852B2002AFBDB00230B724B7207
:100610008B72CB7230BDC0460040004100040040E8
:100620000C06000000080040000C0040010501001D
:10063000B805FF7D040A0000000703000EBEFEE7B8
:100640000DBEFEE705BEFEE702BEFEE70E4A0F48FE
:1006500038B5824204D10E4A0E4B93420ED10AE0C5
:100660000D4C9442F7D00023D1188842F3D9E558B5
:1006700004330D60F8E700F011F804E09342FAD279
:10068000002102C3FAE7FEE7000000205C00002022
:10069000A40300205C0000209819000073B53B4BB8
:1006A0000022197801231940394B0AD11868394AB8
:1006B000904201D1196026E01A60374A013A002AB7
:1006C000FCD11A60354B19681C1C4A1C1BD0DAB2CD
:1006D000002A18D1324A8020324D0004062650608C
:1006E0002E709061106A6A460002C00FD071073206
:1006F0001278002A07D081F30888FF2293432A4A00
:10070000936063681847FFF719FF62B600F0E6FDD3
:1007100000F05CF8224B8022920224499A60082261
:100720000A602349041C0A60802212059A609A61BB
:10073000204B214AC0215A601B4A0906106A000258
:10074000000A0143116200229A6007221A60A3681E
:10075000201C9847194B002801D001221A701A78E2
:10076000002A05D0002000F0ADFA00F033FBFCE7D2
:100770001B78002BEBD100F025FE0028E7D00120EC
:1007800000F0A0FA00F026FBFCE7C0463804004069
:10079000FC7F00203581730748E80100002000003D
:1007A000004400415744004100ED00E0884400410E
:1007B0009844004110E000E0E70300007B000020C7
:1007C00008B5FFF76DFC00F0E1FA08BD10B5054B68
:1007D000054C2360FFF736FD201C2168FFF724FD40
:1007E000201C10BD005000411802002070B5051CEF
:1007F000C0B0081C161C0C1C00F053FF40006A46D9
:10080000032302305370107076080123E218013A76
:1008100011785A00002906D1281C69460023FFF7E9
:1008200095FD40B070BDB342F6DA6846815201339F
:10083000ECE70000F7B50468051C201CFF30037AC4
:10084000AF4A10210B430372AE4F1378AE493B7091
:100850005378AE4E0B7093783380D1783388090289
:100860000B4333801179AA4B198051791F880902F3
:100870000F431F809779A7490F80D2790F88120202
:100880003A430A80402242719F489E4F027838784E
:1008900012020243A0480F1C8446181C624500D176
:1008A000C2E020DC802149008A4200D185E109DCD8
:1008B000812A00D192E0822A00D195E0802A00D0DE
:1008C0007BE18BE081235B009A4200D1D5E000DA26
:1008D0006FE1C0239B009A4200D16EE18F4B9A4298
:1008E00000D166E169E190231B019A4269D015DCD1
:1008F000D023DB009A4222D088231B019A4269D080
:10090000A023DB009A4200D057E1201CFFF7C0FD76
:100910003188286889B2FFF7D7FD52E1804B9A42AF
:1009200000D146E100DC48E17E4B9A4200D134E13F
:100930007D4B9A4200D040E133886B7139E13388B6
:100940001B0A012B08D10B8812222868934201D878
:100950000A8892B2754928E133881B0A022B08D114
:100960000B8843222868934201D80A8892B27049C2
:100970001BE133881B0A032B00D01EE13388DBB256
:10098000012B17D0002B07D0022B00D015E10A88CD
:100990002868D2B2674911E0042201A8664900F034
:1009A0006FFE3B8804222868934201D83A8892B2AD
:1009B00001A9FAE00A8828686049D2B2FFF716FF59
:1009C000FFE03388201C2B71FFF762FD201CFFF72E
:1009D00081FDF6E0291C01C90122E6E05849002307
:1009E0000B8028680222E1E0554900220A8018881D
:1009F00050221040534A10701E880F20304018803B
:100A00001888032800D9D8E012781B8808335B01C6
:100A1000E418A379002A01D09B0600E0DB06DB0F77
:100A20000B8028680222C0E019887F229143454A42
:100A3000C9B2117018880F2101401980318800292E
:100A400000D0BAE01988002900D1B6E0198803293E
:100A500000D9B2E012781B8808335B01E318002A42
:100A600004D05A7930218A43202103E05A79302179
:100A70008A4310210A435A719BE002887F239A43DC
:100A8000304BD2B21A7001880F220A40028032889D
:100A9000002A00D091E00288002A00D18DE002886F
:100AA000032A00D989E01B78002B4DD00388083336
:100AB0005B01E3189B799A0600D47AE00388302121
:100AC00008335B01E3181A798A4320210A431A711B
:100AD000038808335B01E318DB795F0669D5038877
:100AE000602108335B01E318DA798A4340210A4325
:100AF000DA710388022208335B01E3184BE0C04639
:100B000098000020860000207E0000208000002049
:100B10008200002084000020020300000103000086
:100B200021200000A121000021220000E816000081
:100B300004000020D8160000C8160000CC160000E3
:100B40007C00002087000020038808335B01E31845
:100B50009B79D9062DD50388302108335B01E31832
:100B60001A798A4310210A431A71038808335B01FA
:100B7000E318DB799A061CD50388602108335B01F2
:100B8000E318DA798A4320210A43DA7103880122C3
:100B900008335B01E3181A710BE00B880822286800
:100BA000934201D80A8892B206490023FFF7CEFB90
:100BB00007E0201CFFF76CFC03E0201C0121FFF77D
:100BC0005BFCF7BD4800002007B5054B01220190F2
:100BD00001A91868131CFFF7B9FB01200EBDC04620
:100BE0001802002013B5054B6C4607341868211C09
:100BF0000122FFF7FBFB207816BDC046180200203B
:100C000010B5074C201CFFF7CBFA031C00208342D1
:100C100005D022684823FF33D05C0123184010BD63
:100C20001802002010B5054A0C1C031C191C106882
:100C30000123221CFFF78AFB201C10BD1802002094
:100C400070B5084C061C201C0D1CFFF7A9FA0023E8
:100C5000984205D02068311C2A1CFFF7C7FB031CF3
:100C6000181C70BD18020020F8B50C4C051C201C87
:100C70000E1CFFF795FA0023271C341C98420AD05B
:100C8000002C07D0291C221C3868FFF7AFFB241A60
:100C90002D18F5E7331C181CF8BDC04618020020BB
:100CA00008B5031C081C111C9847044B8022120530
:100CB0005A61034B64221A8008BDC04600440041BB
:100CC00092000020012805D1054B064A1A60064B08
:100CD000187004E0002802D1044A014B1A607047E2
:100CE000880200201C1700009400002068170000F4
:100CF00030B50A1C1C4985B00978031C00292AD08C
:100D0000042A01D1006804E0022A01D1008800E031
:100D10000078520004A98B180B3B9C1AA3420BD0FD
:100D20000F210140092902D83025294300E037313D
:100D300019700009013BF1E701A930230B707823FA
:100D40004B700A208B1898700D20D870074B043216
:100D50001B68D86803E005490968C868191CFFF7D3
:100D60009FFF05B030BDC0468800002088020020EB
:100D700072B6EFF30883044A1360036883F30888AC
:100D8000436818477047C0468C0200200D4B1A88F4
:100D9000002A09D01A88013A92B21A80002A03D197
:100DA0008022094B12059A61084B1A88002A08D044
:100DB0001A88013A92B21A80002A02D1044B082202
:100DC0001A6070479200002000440041900000200B
:100DD00098440041F0B591B008A9CE4A0B1C31CA25
:100DE00031C351CA51C360CA60C3CB4BCB489A6868
:100DF0007A255203520F92005258C94902609C68EA
:100E0000A4B262430C60C74900240A60C64A146059
:100E1000C64C2570C64CC74D2368281C1B69402151
:100E20009847002805D0C44B08221A60C34B64229F
:100E30001A80C34B00221860C24B1D60C24BC24DCA
:100E4000BF4F1A602A683B689A42E3D2BD4B1B68C9
:100E50001A78FF2A00D120E2232A00D0F7E1BB4E06
:100E60003378002B06D0B24BB9491B680222D868F0
:100E7000FFF716FFAD4B1B78532B3FD13B682A6819
:100E800093421ED9AF4801322A609A1AB14B0168C9
:100E90001B6801310160B04E9A4201D2326000E01D
:100EA0003360A14832680068049000F0E9FB3368C1
:100EB00029685A182A60A34A1668F1181160A74ACF
:100EC00013702B68013B2B609E4B1A68013A1A6025
:100ED000A24BA04A1B7811688B420DD2226892481F
:100EE000C91A006892699047002805D0924B0822E1
:100EF0001A60924B64221A80C04696E1522B0ED1A2
:100F00008948944A2368006811685B690390984790
:100F1000934B802212055A616422924B0DE04F2BB5
:100F200005D1814B8B4A1B6812681A707DE1482BF2
:100F300005D17D4B874A1B6812681A8075E1572BD3
:100F400005D1794B834A1B6812681A606DE16F2BDB
:100F500003D1754B0121186807E0682B08D1724B4B
:100F60007C481B6802211B880360FFF7C1FE5CE11F
:100F7000772B06D16C4B77481B6804211B680360F4
:100F8000F3E7472B13D1734B1868FFF7F1FE764B4D
:100F90001B6883F3088862B6744B1B78002B00D162
:100FA00043E1634B06201B681B6898473DE1542BC7
:100FB00004D1012333705E4B1B6864E04E2B0CD1CF
:100FC0003378002B06D15A4B61491B680222D8683E
:100FD000FFF766FE0023337027E1562B57D12368B5
:100FE0006349D8680122FFF75BFE23686149D8682E
:100FF0000322FFF755FE604D2368291CD8680122A3
:10100000FFF74EFE23685D49D8680D22FFF748FEC2
:101010002368291CD8680122FFF742FE494F4A4D38
:101020005749002339602B603A1C281C13685E1C4A
:1010300016601B780593002B03D00368013303600F
:10104000F4E73B4E2A683368D868FFF729FE336817
:101050004949D8680122FFF723FE059929604949CB
:101060003960384A1368581C10601B78002B04D074
:10107000354B1A6801321A60F3E733682A68D8687A
:10108000FFF70EFE3368D86831490222CBE0314ABF
:10109000582B17D1214E234D366813682A68B100AA
:1010A00093420AD21C4D5808E861374828801A4DEF
:1010B000287DC607FBD55B18F2E71D4B33491B683B
:1010C000D868AFE0592B00D07DE01268164B30494C
:1010D000002A02D11B680B6070E00F4D0868196888
:1010E0006B680D4E8025AB4392087360002A65D073
:1010F000284B094D2B80084E337DDD07FBD500239F
:10110000064D2D680195AD08AB4247D3224D024EE6
:1011100035804AE0FC1600000040004140020020FB
:101120003802002034020020840200203002002017
:1011300088020020440200209444004190000020D6
:10114000280200202C0200203C0200208800002001
:101150005C1700009002002094020020240200206E
:1011600000440041920000208C02002094000020E6
:1011700038170000611700003A17000084170000BC
:101180003C1700004817000002A5FFFF51170000A0
:101190008C00002044A5FFFF04A5FFFF9342B5D0BB
:1011A0009D00465901334E51AAE7404E357DEE076A
:1011B000FBD59D0049194019D21A97E73C4B3D4990
:1011C0001B68D8682EE05A2B2FD13B4B17681D683F
:1011D0000026EF19BD4206D02878311C00F014F922
:1011E0000135061CF6E7324B34491B680122D868EA
:1011F000FFF756FD07230F223240111C360930310C
:10120000092A00DD07311820C0186A468154013BC5
:10121000F1D2236806A9D8680822FFF741FD2368A8
:101220002749D8680322FFF73BFD264B7A221A7024
:10123000254B00221A60254B1B7893422DD01C4B66
:1012400023491B680122D868FFF72AFD25E0111CFD
:101250003039C8B21C4B092804D81D682A01114333
:1012600019601AE0111C4139052903D81E68373A64
:10127000310106E0111C6139052904D81868573A74
:1012800001010A4308E02C2A03D10B4A19681160B6
:1012900001E00C490A7000221A600E4B1A680132F4
:1012A0001A600D4B1A680132C9E5C0460040004182
:1012B0008802002055170000840200205917000002
:1012C0005B17000030020020900200208800002000
:1012D0005F1700003C0200202C02002010B51C4BC0
:1012E00001201A78022402431A701A4B0F2219782F
:1012F0009143197019782143197017490C782043CC
:10130000087019780A401A701A7820210A431A7056
:10131000124B04211A6A0A431A62114B114A5A806D
:101320005A7852B2002AFBDBC4220F480F499203BD
:10133000FEF7EAFE0E4A002313700E4A13700E4A9F
:1013400013700E4A13700E4A13700E4A137010BDBC
:101350004A440041354400414B44004100040040F0
:10136000000C004014400000000800422AF6000073
:10137000980200201F030020990200209C020020F8
:10138000200300201D03002008B5C1B20248FEF76B
:10139000E9FE012008BDC04600080042024B187E4D
:1013A0004007C00F7047C0460008004208B5FFF76D
:1013B000F5FF0028FBD00248FEF7DAFE08BDC04664
:1013C0000008004208B5FFF7E9FF0023984205D066
:1013D000FFF7ECFF031C233B5A425341181C08BD86
:1013E00070B5041C0D1C4618B44204D02078FFF7D9
:1013F000CBFF0134F8E7281C70BD10B5041CFFF7C3
:10140000D5FF2070012010BD0B0A5840034B40004F
:10141000C05A0902484080B27047C0469217000087
:10142000F7B50024051C0F1C261CBC4220D0FFF77A
:10143000BDFF114BC0B21B780190002B1AD1311C9B
:10144000FFF7E2FF0D4B061C1A88002A04D10C4A54
:1014500011782A1C002907D001996A1C2970802F55
:1014600002D11988013919800134A4B2151CDCE7B6
:10147000301C00E00120FEBD1D0300209A02002068
:101480001E030020F0B53E4E85B0002203900C1CD8
:1014900032703C4B914201D1012201E03A490C806B
:1014A0001A707F231C4201D080349C43FFF77EFFDB
:1014B0003378C0B2002B07D000253570FFF776FFD8
:1014C0003378C0B2AB4236D1432803D0712853D011
:1014D0001528EBD1012300930120FFF755FF009859
:1014E000FFF752FF00998025C843C0B2FFF74CFFB9
:1014F000039B00270293244A1388002B1DD1214906
:1015000001930978002918D10198FFF73DFF391C94
:101510000198FFF779FF013D071C002DEBD1000A70
:10152000C0B2FFF731FFF8B2FFF72EFFFFF73EFF23
:101530003378002B0AD035701FE00299013B0978FF
:101540001380029B019101330293DDE7C0B20628AC
:1015500007D1009B03990133DBB280310093803CBB
:101560000391002CB8D10420FFF70EFFFFF71EFFF8
:10157000044B01251C7000E00025281C05B0F0BDBF
:101580001D0300201E0300209A020020F0B5384CF5
:1015900087B0002301902370994201D1012301E01B
:1015A000344A1180344A642613704320FFF7ECFE5E
:1015B000324FFFF7F3FE002803D1002F03D0013F85
:1015C000F7E7002F03D1013E002EEED14DE00125BB
:1015D000FFF7ECFE2378002B38D1C0B2029001282F
:1015E00005D004283DD10620FFF7CEFE39E005AE38
:1015F0000221301CFFF714FF01988021FFF710FF34
:1016000023780390002B18D1FFF7D0FE0702FFF7D5
:10161000CDFEBFB223783F18BFB2012B0DD0039B84
:101620009F4207D13378AB4204D1EB437278DBB2EF
:101630009A4204D01820FFF7A7FE002303E00620FB
:10164000FFF7A2FE029B2278002A02D00026267015
:101650000BE0012B05D1019A6B1C8032DDB20192A7
:10166000B6E7054A002313700126301C07B0F0BD11
:101670001D0300209A0200201E03002000350C00EC
:1016800010B50023934203D0CC5CC4540133F9E776
:1016900010BD031C8218934202D019700133FAE77F
:1016A00070470023C25C0133002AFBD1581E7047EB
:1016B000F8B5C046F8BC08BC9E467047F8B5C046B1
:1016C000F8BC08BC9E467047040309044172647567
:1016D000696E6F204C4C4300537061726B46756E9F
:1016E0002039446F46000000120100020200004051
:1016F0004F1B0E9D000201020001000008000000C7
:1017000010000000200000004000000080000000E9
:101710000001000000020000000400008913000026
:10172000AD1300009D130000E1130000FB13000047
:10173000851400008D150000760020004E6F762085
:10174000313620323031360030383A35363A3032A0
:1017500000580A0D00590A0D005A00230A0D003ED8
:1017600000322E3000000000C90B0000E50B000025
:10177000010C0000250C0000410C0000250C0000AD
:10178000690C00005B41726475696E6F3A58595A72
:101790005D0000002110422063308440A550C660E7
:1017A000E770088129914AA16BB18CC1ADD1CEE11E
:1017B000EFF13112100273325222B5529442F77295
:1017C000D662399318837BB35AA3BDD39CC3FFF36E
:1017D000DEE36224433420040114E664C774A444A5
:1017E00085546AA54BB528850995EEE5CFF5ACC5BE
:1017F0008DD55336722611163006D776F666955675
:10180000B4465BB77AA719973887DFF7FEE79DD70D
:10181000BCC7C448E5588668A77840086118022804
:101820002338CCC9EDD98EE9AFF9488969990AA95D
:101830002BB9F55AD44AB77A966A711A500A333AD4
:10184000122AFDDBDCCBBFFB9EEB799B588B3BBBAD
:101850001AABA66C877CE44CC55C222C033C600C64
:10186000411CAEED8FFDECCDCDDD2AAD0BBD688DFD
:10187000499D977EB66ED55EF44E133E322E511EB4
:10188000700E9FFFBEEFDDDFFCCF1BBF3AAF599F4D
:10189000788F8891A981CAB1EBA10CD12DC14EF1ED
:1018A0006FE18010A100C230E32004502540467053
:1018B0006760B9839893FBA3DAB33DC31CD37FE37E
:1018C0005EF3B1029012F322D232354214527762A3
:1018D0005672EAB5CBA5A89589856EF54FE52CD54E
:1018E0000DC5E234C324A0148104667447642454F3
:1018F0000544DBA7FAB79987B8975FE77EF71DC75E
:101900003CD7D326F2369106B01657667676154642
:1019100034564CD96DC90EF92FE9C899E9898AB9AD
:10192000ABA94458654806782768C018E108823892
:10193000A3287DCB5CDB3FEB1EFBF98BD89BBBABBD
:101940009ABB754A545A376A167AF10AD01AB32AE2
:10195000923A2EFD0FED6CDD4DCDAABD8BADE89D0D
:10196000C98D267C076C645C454CA23C832CE01C32
:10197000C10C1FEF3EFF5DCF7CDF9BAFBABFD98F9D
:10198000F89F176E367E554E745E932EB23ED10E82
:10199000F01E0000000000000114000009024300D6
:1019A0000201008032090400000102020000052447
:1019B0000010010424020005240600010524010092
:1019C00001070583030800FF09040100020A000063
:1019D00000070581024000000705020240000000E8
:1019E00000C2010000000800690000004100000082
:0419F00000000000F3
:1020000000800020556500003D6500003D65000032
:1020100000000000000000000000000000000000C0
:102020000000000000000000000000003D6500000E
:1020300000000000000000003D650000A9650000F0
:102040003D6500003D6500003D6500003D65000008
:102050003D6500003D6500003D65000041650000F4
:102060003D650000293E00003D6500003D65000023
:10207000013E00003D650000393E00003D65000066
:102080003D6500003D6500003D6500003D650000C8
:10209000000000003D6500003D6500003D6500005A
:1020A0003D6500003D6500003D6500003D650000A8
:1020B0000000000010B5064C2378002B07D1054B1B
:1020C000002B02D0044800E000BF0123237010BDA4
:1020D00044010020000000008CB1000008B5084B4E
:1020E000002B03D00748084900E000BF07480368F9
:1020F000002B03D0064B002B00D0984708BDC046EC
:10210000000000008CB100004801002040010020C8
:102110000000000038B5124CE121201C490202F0F9
:10212000F9FF104801F0FCFC0F4D281C00F078F876
:1021300000280ED0201C0D4902F054FD0C49201C33
:1021400002F050FD201C02F045FD0A4804F040FA60
:10215000F0E7B821281C49000A2200F0A0F838BD99
:102160008C050020C8010020600100203C9A00007E
:10217000609A00008813000010B51048104902F062
:1021800031FD104C201C00F069F8002815D0201CEF
:1021900000F0B9F8002810D1201C012100F018F936
:1021A000094C0921201C01F0DBFC2368201C1B6862
:1021B000FF219847201C01F08AFD10BD8C050020EE
:1021C000829A000060010020C801002008B5024882
:1021D00000F004F808BDC04660010020044B002256
:1021E0004365031C4C331A80002303657047C046C7
:1021F000AE47D54007B501A800F01EFC002801D16C
:10220000019800E000200EBD13B56C460634201C7A
:1022100000F034FC0023984200D12388181C16BD1E
:1022200037B5041C0C4801F07BFC01A800F092FEBD
:10223000051E0ED1012000F0C1FC792000F0F8FD50
:10224000201CFFF7D7FF2065201CFFF7DDFF4C3473
:102250002080281C3EBDC046C801002037B56D4611
:1022600006357220291C00F045FA002801D0002014
:102270000BE06C4607347320211C00F03BFA002869
:10228000F5D128782378000218433EBD08B5081C14
:10229000C82900D9C82080B201F0A2F808BDF8B55D
:1022A000071C0C1C151C01F08DF8002801D0202003
:1022B00028E01023620704D501209C4301F0FCF9BB
:1022C00004E01C4202D0012001F010FAA30602D55E
:1022D000012001F0DBF90126301C204301F020FA37
:1022E0000028E4D1311C002D04D0291CC82D00D9B0
:1022F000C82189B2381CFFF7C9FF0028D7D10120B7
:1023000001F012F8F8BDF0B58DB06F466B46093399
:1023100004AD06AE0A37041C01930097281C311C3B
:1023200008AA03AB01F0D6FA002827D13B88190789
:1023300008D50021725E22600221725E6260042173
:10234000725EA2605A0602D500216A5EE2609A06B9
:1023500002D502216A5E2261DA0602D504216A5E94
:102360006261DA0507D5089B099963620A9A0B9B9B
:10237000A162E26223630399A16300E020200DB013
:10238000F0BDF8B500230E1C141C1D1CA34204DA7A
:1023900001229A4015430133F8E7301C204105F033
:1023A0007BFB071C301C284005F0D2FB013C051CC0
:1023B0000220A04005F070FB011C281C04F0CEFE9A
:1023C000011C381C04F066FDF8BD00000000000090
:1023D000F0B5061C87B005911E22716AFFF7D1FF88
:1023E000B16A02901E22301CFFF7CBFFF16A009009
:1023F0001E22301CFFF7C5FF1E22071C316B301C4C
:10240000FFF7BFFF391C051C381C05F08BF8291C91
:102410000190281C05F086F8011C019804F03AFD93
:10242000C021090605F07EF8FE21890504F032FD81
:10243000391C0390009805F075F8291C041C0298BB
:1024400005F070F8011C201C05F096F9011C04F041
:1024500021FD291C0490009805F064F8391C041C27
:10246000029805F05FF8011C201C04F013FDC02148
:10247000090605F057F8291C041C381C05F052F811
:102480000099051C029805F04DF8011C281C05F068
:1024900073F9011C04F0FEFC051C0098011C05F0FA
:1024A00041F8019904F0F6FCC021090605F03AF85C
:1024B000FE21890504F0EEFCFE21071C8905201C85
:1024C00004F0BCFC002807D1201C414904F0A2FC08
:1024D000002803D03E4C01E0FE24A405201C07F098
:1024E000C7F801F0FDFC021C0B1C05F081FB07F096
:1024F00011F9F063281C07F0BBF8041C381C0D1CF4
:1025000007F0B6F8021C0B1C201C291C01F044FD2E
:1025100007F000F93064049807F0AAF8041C039847
:102520000D1C07F0A5F80B1C021C291C201C01F037
:1025300033FD07F0EFF8059B051C7064002B41D0BC
:10254000F06B07F095F8214B1F4A06F0D7FA07F019
:10255000E1F8071CF063306C07F08AF81B4B1A4A4D
:1025600006F0CCFA07F0D6F83064041C281C07F0FB
:102570007FF8164B144A06F0C1FA07F0CBF8002199
:10258000051C7064381C04F045FC002804D0381C7D
:10259000104904F07FFCF063201C002104F03AFC99
:1025A000002804D0201C0B4904F074FC3064281C63
:1025B000002104F02FFC002804D0281C054904F059
:1025C00069FC706407B0F0BDF8C1631ADCA54C402B
:1025D000000080BF0000B44310B5041C03F0F2FFFC
:1025E0002060002010BD08B503F0F2FF002008BDF8
:1025F000F8B50F4D84460C1C281C61461E1C171C88
:1026000001F0AEFA211C281C01F003FB341CA31BB3
:10261000DBB2BB4205D22178281C01F0FAFA013462
:10262000F5E7281C012101F019FB0020F8BDC04688
:10263000C8010020F7B5114C061C0191201C311C6B
:102640001F1C151C01F08CFA0199201C01F0E1FA05
:102650000021201C01F002FB311C201C2A1C01F06F
:10266000D3FA3E1CF31BDBB2AB4205D2201C01F0B7
:1026700033FB30700136F5E70020FEBDC8010020B5
:102680000CB402B07047000037B5194C631DDB7FF6
:10269000002B0CD06D460735002802D002232B708A
:1026A00000E02870636818782368597C14E0A27AE7
:1026B000002A1AD0002807D0627C181C002A16D1E4
:1026C00001226B46DA7101E06B46D87163686D4692
:1026D000187823680735597C01222B1CFFF788FFE7
:1026E000002802D12B78637401E0012040423EBDF6
:1026F0000000002010B5021C0A480B1C0468617B16
:1027000091420CD0217E914209D0406801799142DA
:1027100005D9111C00780122FFF78CFF01E0012090
:10272000404210BD0000002037B5514CA37A002B69
:1027300001D101209AE06D46073500232B706268B5
:1027400023681078597C01222B1CFFF751FF0028C9
:10275000EFD1626823681078597901222B1CFFF7AA
:1027600047FF0028E5D162682368107819790122B3
:102770002B1CFFF73DFF0028DBD1631DDB7F002B07
:1027800036D00C232B7062682368107819790122E7
:102790002B1CFFF72DFF0028CBD13220FFF723FFA2
:1027A000C0232B70A37ADA0701D5E0232B7063686E
:1027B0002268187811792B1C0122FFF719FF0028D5
:1027C000B7D1637C002B00D002232B702268636892
:1027D000517C187801222B1CFFF70AFF0028A8D192
:1027E0006368287018782368012259792B1C39E016
:1027F00004232B70626823681078197901222B1C3E
:10280000FFF7F6FE002894D1A37C002B02D1A37A17
:10281000DA0701D4402300E060232B70226863684C
:102820001179187801222B1CFFF7E2FE002880D1D5
:102830003220FFF7D8FE637C002B00D001232B70E1
:1028400022686368517C187801222B1CFFF7D0FEA8
:10285000002800D06DE7636822681878231C51793E
:1028600010330122FFF7C4FE431E984140423EBD93
:102870000000002037B51A4CA37A002B2DD0FA2384
:102880005B0098420ED003D80022FA280DD024E035
:10289000FA239B00984207D0FA23DB0018229842C3
:1028A00003D01AE0082200E010226B46DA71DB79CF
:1028B000227A6D460735DB0800209A420FD0636804
:1028C00001221878236899792B1CFFF791FE0028C4
:1028D00003D12B78DB08237201E0012040423EBD8A
:1028E0000000002000B50E4A031C507A032813D8BC
:1028F00004F086F902040608022104E0042102E043
:10290000082100E010211970D27C0020824205D0FD
:102910001A7852001A7001E00120404200BDC04602
:102920000000002037B5174CA37A002B27D00428CD
:102930000AD003D80022022809D020E0082805D0B8
:102940001822102803D01AE0082200E010226B465B
:10295000DA71DB79627A6D460735DB0800209A422E
:102960000FD06368012218782368D9792B1CFFF7F0
:102970003FFE002803D12B78DB08637201E00120C1
:1029800040423EBD0000002037B5164DAB7A002B0B
:1029900002D10120404223E06C4607340123BB28CA
:1029A0000CD80223612809D80323292806D8042338
:1029B000132803D80523092800D806232370EA7AB0
:1029C000237800209A420BD06B68012218782B687C
:1029D0009978231CFFF70CFE0028DAD12378EB72DC
:1029E0003EBDC0460000002073B5011E02D1012586
:1029F0006D421CE00F4CE0898142F8D86429F6D87A
:102A000004F008F96E4663680138F071187823689D
:102A100007360533D97F0122331CFFF7E9FD051E78
:102A2000E5D13178E089013104F042F92085281C94
:102A300076BDC0460000002000B50B4A031C107A8A
:102A400003280DD804F0DCF80204060A074A02E065
:102A5000074A00E0074A1A60002003E0064AFAE746
:102A60000120404200BDC04600000020000003439A
:102A700000008342333303423333834100B50E4AAF
:102A8000031C507A032814D8802104F0B9F80204FA
:102A90000608C90104E0890102E0490100E00901DA
:102AA0001980D27C0020824205D01A8852081A80F0
:102AB00001E00120404200BD00000020F8B5154BA8
:102AC00000245A1DD27F1E1CA24221D19C7A002CC8
:102AD0001CD00122051C95432C401F7C1C74641BD8
:102AE000621E94416442002D02D1187D002805D059
:102AF0000120FFF7C9FD002D0AD002E0FFF7C4FD59
:102B000006E0FFF711FE002802D03774012464426A
:102B1000201CF8BD00000020F0B5274C87B00190C4
:102B200003910292631DDB7F271C002B16D0A37A32
:102B3000002B13D06268236805AD1078197B022240
:102B40002B1CFFF777FD002808D12E786B78019AAF
:102B500036021E43964204D2029B1870012464423E
:102B600026E063685A88520896420FD9187823687D
:102B70000122D97C2B1CFFF75DFD0028EED12B78BC
:102B8000DA0603D5FFF7D0FD0224E8E77B68187862
:102B90003B68597B019BDAB2039BFFF74BFD041E98
:102BA000DCD1301C019904F035F8029A013810701C
:102BB000201C07B0F0BDC0460000002073B5324DA8
:102BC000061CAB7C83425CD06B686C4618782B6823
:102BD000073419790122231C002E1FD0FFF72AFD8C
:102BE000002802D0012040424CE023782022934369
:102BF00023706B68012218782B681979231CFFF762
:102C0000F7FC0028EED10320FFF7EDFC0223237030
:102C1000EB1CDB7F002B21D082231EE0FFF70AFD97
:102C20000028DFD1A97A20222378C80701D51343D1
:102C300000E0934323706B68012218782B681979A0
:102C4000231CFFF7D5FC0028CCD10320FFF7CBFCD9
:102C5000EB1CDB7F002B00D0802323702B1DDB7F40
:102C6000002B03D023783022134323706B6801229A
:102C700018782B68D97D231CFFF7BAFC0028B1D146
:102C8000AE74002076BDC0460000002037B5174C5A
:102C9000051C231DDB7F834223D06B4607330028AE
:102CA00002D030221A7000E01870A27C002A03D0F3
:102CB0001A7802210A431A70E21CD27F002A04D03B
:102CC0001978802252420A431A706268107822688A
:102CD000D17D0122FFF78CFC002804D10434E57774
:102CE00003E0002001E0012040423EBD0000002042
:102CF00073B5061E282E32D801AC254D002810D100
:102D0000FFF7C4FF072363706B68267018782B6881
:102D10000222597D231CFFF76BFC041E1FD128756E
:102D200033E00120FFF7B2FF0223012E0CD0032372
:102D3000022E09D00423052E06D905230A2E03D915
:102D40000623142E00D9072323706B6801221878FC
:102D50002B68597A231CFFF74BFC002802D0012472
:102D6000644212E0202323706B68012218782B68DC
:102D7000597D231CFFF73CFC041EF0D10823AB72E5
:102D8000012328732B75FFF799FE201C76BDC046E2
:102D90000000002073B5254B051C9A7A1C1C002AE4
:102DA00002D101256D423FE05A1DD67F002EF8D199
:102DB0001B7D002B09D0431E272B03D8FFF798FF5C
:102DC000351C31E0301CFFF793FF0421032D06D999
:102DD000FA23291C9B009D4200D9191C89B2FA20B4
:102DE000800003F065FF6E4663680138F071187863
:102DF0002368073659780122331CFFF7F9FB051EBB
:102E0000CFD13178FA200131800003F051FF238DBA
:102E1000E081181C642B00D9642080B2FFF7E4FD28
:102E2000E0894008FFF7B0FD281C76BD00000020B7
:102E3000F7B570236C46061C03400634002B01D006
:102E4000012302E0002800D14023414F23707A681B
:102E50003B681078597D0122231CFFF7C9FB3D1CFC
:102E6000002802D00023BB7227E0227840239A4337
:102E70003A731E4201D0207001E004232370B20691
:102E800003D42378022213432370F30603D4237858
:102E9000012213432370320703D4237838221343CB
:102EA00023706B682A681878917D231C0122FFF734
:102EB0009FFB002804D00023AB720124644244E04D
:102EC0000823321C9A4301D0FFF7E0FE6B682A68A2
:102ED0006F460737187811793B1C0122FFF7AAFBD0
:102EE0000028EAD13B78F20704D511222270202273
:102EF000134303E010222270202293433B706B1D8A
:102F0000DB7F3A78002B03D080235B42134301E040
:102F10007F2313403B706B68012218782B680733BE
:102F2000D97F231CFFF764FB0028C6D16A682B6891
:102F30001078197901223B1CFFF75AFB041EBCD103
:102F400028753220AE72FFF74EFB201CFEBDC04636
:102F500000000020F0B59F4C85B002AD80232B709F
:102F60006368012218782368597D2B1CFFF740FB0A
:102F7000061E02D00124644229E16420FFF733FBDE
:102F800063682E70187823680122597D2B1CFFF787
:102F90002FFB0028EED148232B706368E07418786B
:102FA00023680122197A2B1CFFF722FB051EE1D1B1
:102FB000FF23A37223726372E372A3740126E31CDE
:102FC000DE770122231D5242D87760752075201CC0
:102FD000E281227422851630291C0C22267306F009
:102FE00091FC631DFA20DD77C000A31DDD77E58429
:102FF000FFF740FC0028BDD10220FFF793FC00281A
:10300000B8D12A20FFF7C0FC0028B3D13220FFF747
:10301000C1FE0028AED1FFF751FD0028AAD1301C17
:10302000FFF7CCFD0C2601AD301C002101222B1C2A
:10303000FFF700FB002802D12B78482B0ED0013679
:10304000F6B2102EEFD16448FFF71AFB0A20FFF703
:10305000CBFC041E8ED1FFF7EBFEB8E01023271C3B
:103060002A372B70301C0A2101222B1C3E70FFF7DF
:10307000BFFA0028EAD10120FFF7B5FA1F232B7011
:1030800038780A2101222B1CFFF7B2FA0028DDD183
:103090000120FFF7A8FA3878102103222B1CFFF734
:1030A000C9FA0028D2D12B780A218033A3856B7806
:1030B00001228033E385AB788033238610232B7085
:1030C00038782B1CFFF794FA061EBFD10120FFF7BA
:1030D0008AFA301CFFF772FD40232B7063680122CF
:1030E00018782368997E2B1CFFF782FA0028ADD14F
:1030F0003A7880235B4213432B706368012218786F
:103100002368997F2B1CFFF773FA00289ED10223B6
:103110002B706368012218782368D97F2B1CFFF776
:1031200067FA002892D188232B70636801221878EF
:1031300023680133D97F2B1CFFF75AFA002885D169
:10314000231C2A331B7801AD2B7063680122187889
:1031500023680233D97F2B1CFFF74AFA002800D0DE
:1031600074E70A232B7063680122187823680333FD
:10317000D97F2B1CFFF73CFA002800D066E781239B
:103180002B7063680122187823680433D97F2B1CC5
:10319000FFF72EFA002800D058E711232B70636840
:1031A0000122187823680733D97F2B1CFFF720FAF8
:1031B000002800D04AE703232B70636801221878A7
:1031C00023680833D97F2B1CFFF712FA3EE7201C37
:1031D00005B0F0BD00000020519B0000F7B50F1CAA
:1031E000161E01D1012020E0114CA37A002BF9D04A
:1031F000030A01AD2B70C0B2636868705A89401829
:103200009042EFDC187823680222D97E2B1CFFF74E
:10321000EFF90028E6D16368FAB218782368197EBE
:10322000331CFFF7E5F9431E98414042FEBDC046FE
:1032300000000020F7B50F1C161E01D1012020E070
:10324000114CA37A002BF9D0030A01AD2B70C0B248
:10325000636868705A8940189042EFDC18782368D8
:103260000222D97E2B1CFFF7C3F90028E6D1636840
:10327000FAB218782368197E331CFFF7DBF9431E76
:1032800098414042FEBDC04600000020F0B58BB022
:103290000393244B0090019102920633DC7F002CB3
:1032A00001D001203BE001990029FAD000998C421D
:1032B0001FD2009A151B102D00DD1025019BAEB208
:1032C0001F19201C311C3A1CFFF788FF0028E8D189
:1032D000201C311C06AAFFF7ADFF0028E1D1321CEB
:1032E000381C06A906F0F6FA002817D13419A4B242
:1032F000DCE702990B4C0A0A05AB1A706268597038
:1033000010782268517F0222FFF772F90028C8D195
:10331000A31D0122DA77039BE38401E002204042EF
:103320000BB0F0BD0000002073B51C4C051C661DE1
:10333000F37F83422CD000281BD0A31DDB7F002B02
:1033400028D00020FFF7A0F90020FFF737FCE08C21
:10335000FFF720FD6B466268073300251D7010786B
:1033600023210122FFF744F90120F077FFF78CF9C0
:103370000CE0FFF789F9227C6B4607331A7062680C
:10338000232110780122FFF733F9F577FFF7CCF905
:10339000002001E00120404276BDC0460000002030
:1033A0001FB50924221C01A8054906F0A2FA97209E
:1033B000211C01AAC000FFF711FF04B010BDC046D8
:1033C000069F000008B5802203480449D200C823A4
:1033D000FFF75CFF08BDC046F60B0000469F0000EB
:1033E00010B5144986B0041C153103A80C2206F050
:1033F00080FAC82C02D90120404218E0211CC820C4
:1034000003F056FC013880B201AA030A5070022171
:1034100009481370FFF7E2FE0028ECD107480C21A1
:1034200003AAFFF7DBFE0028E5D1054B9C8106B01F
:1034300010BDC046069F000016020000C10A000031
:10344000B801002073B5061C430700D190E0C823E3
:10345000DB00994200D98BE0081C04F079FB464957
:1034600003F07CFE6D460335041C281CFFF73AFA76
:103470002B78042B1CD00CD8022B79D18D21C905B7
:10348000201C04F04FF803F0EDFC3C4985B2201CF1
:1034900023E0082B17D0102B6AD18A21C905201CE4
:1034A00004F040F803F0DEFC354985B2201C14E03E
:1034B0008C21C905201C04F035F803F0D3FC3149F8
:1034C00085B2201C09E08B21C905201C04F02AF8D4
:1034D00003F0C8FC2C4985B2201C04F023F803F04B
:1034E000C1FC01AC80B22B0A2370030A6570A37083
:1034F000E070F30703D402252E4223D011E0EA2026
:1035000040000221221CFFF769FE002830D19220E2
:103510006A46400002210632FFF760FE0028EAD02A
:1035200026E0EC204000291C221CFFF757FE002853
:103530001ED194206A464000291C0632FFF74EFE39
:10354000002815D104200640301E13D0EE20400084
:103550000221221CFFF742FE002809D196206A466C
:10356000400002210632FFF739FE461EB04100E05E
:103570000120404276BDC04600004843000040465E
:103580000000C0440000C0450000404507B50123CD
:103590006A4603400732002B00D0302313708307A4
:1035A00003D513780C210B431370430703D513780D
:1035B00003210B431370A42040000121FFF70EFEEE
:1035C0000EBD07B50123002804D0031C042800D930
:1035D0000423DBB26A4650200732013BFF30012151
:1035E0001370FFF7FBFD0EBD07B5052103F012FBBD
:1035F00001AA80B2030A5070EF204000022113702C
:10360000FFF7ECFD0EBD07B5052103F003FB01AA92
:1036100080B2030A5070ED20400002211370FFF7C2
:10362000DDFD0EBD13B50C1CFA21890003F040FB33
:10363000211C414301AA0B161370AE200B145370CA
:10364000D1700B12400004219370FFF7C7FD16BD27
:1036500007B5052103F0DEFA01AA80B2030A507013
:10366000AD20400002211370FFF7B8FD0EBD07B575
:10367000052103F0CFFA01AA80B2030A5070AC20F2
:10368000400002211370FFF7A9FD0EBD1FB50028F1
:1036900002D0FFF785FE0BE006490922213101A87F
:1036A00006F027F99720C000092101AAFFF796FD2F
:1036B00005B000BD069F000007B501AA002808D08C
:1036C000C0231370C2235370C4239370C623D370D6
:1036D00001E0044B019304210348FFF77FFDFFF74E
:1036E00023F80EBD8B8B8B8B980A000007B501AABF
:1036F000002808D0202313702823537030239370A0
:103700003823D37001E0044B019304210348FFF7F1
:1037100065FDFFF709F80EBDA3A3A3A39E0A000051
:10372000F0B587B003AC02232370CA236370E32390
:10373000051CA370682009230421221CE370402784
:10374000FFF74CFDA32323702F4005D0C0236370E7
:10375000C823A370C22301E06370A370E370C02389
:103760005B002B40009305D0C4232371CC236371ED
:10377000C62302E0A32323716371A3714F48A323DF
:103780000A21221CE37123726372FFF727FD0323D2
:103790002B40019301D0202300E0D8234848012189
:1037A000221C2370FFF71AFD2020284002D0FFF7CB
:1037B000F7FD01E0FFF76AFF009B002B16D0EB0539
:1037C00007D5B22323708B236370B623A3709B238A
:1037D00006E0B023237080236370B423A37090238A
:1037E00038480421221CE370FFF7F8FC012635421B
:1037F00023D08B20F823221C311C00012370FFF7FB
:10380000EDFCFA210720FFF71DFE0720FFF7BEFEA3
:10381000301CFFF7D6FE6420FFF7E6FEFA20B0402A
:10382000FFF7F1FEC8212848FFF7FCFE2820FFF72C
:103830000FFF0A20FFF71BFF07E08B20D8230001B2
:10384000311C221C2370FFF7C9FCAB0701D5D9231B
:1038500000E0D8231D480121221C2370FFF7BEFC85
:103860000420284000D00120FFF726FF1020284028
:1038700000D00120FFF73AFF154C08232B4363814A
:10388000FEF752FF002F01D1A77301E00623A373B7
:10389000009B002B02D0A37B0633A37314231D428D
:1038A00002D0A37B1033A373019B002B02D0A37B18
:1038B0000433A373002007B0F0BDC046A70A000080
:1038C000B60A0000A20A000009E3CA023D07000090
:1038D000B8010020F0B58DB0129C0393624F002315
:1038E000029101902380161CB87B04A9139AFFF75C
:1038F00013F9051E00D0B1E07B891422134255D084
:103900006846427C017C120409061143C27C6F4662
:103910001143827C120211433160427D8C46017D4D
:10392000120409061143C27D1143827D1202114324
:1039300071607A7E007E120400060243F87E09144C
:103940000243B87E494300020243B2603F7F121433
:103950003F0600976F46787F009F0004074300975B
:103960006F46F87F009F5243074300976F46B87F2A
:10397000009F000238436746F0603E14764300140F
:10398000404371188A18F121090610184018802147
:103990008904884203D9FEF7C7FE25805EE02188AE
:1039A000802252000A432280102200E0021C5E06A0
:1039B00018D504AFB918B85C4E7800023043029EA7
:1039C000029F30808878CE78000230437880087972
:1039D000497900020143B980218808200632014359
:1039E000D2B22180C02149000B4218D004AFB918CF
:1039F000B85C4E7800023043019E019F3080887889
:103A0000CE7800023043788008794979000201437A
:103A1000B9802188702006320143D2B221809F07ED
:103A200018D004A886187378F478D90709D50E4BF6
:103A30001B68002B05D00721A0062140400F013153
:103A4000984773781A0705D5074B5B68002B01D0A0
:103A5000A00998470398FEF7BFFD01E001256D42DC
:103A6000281C0DB0F0BDC046B801002000207047F2
:103A7000F8B5051C0F1C161C0024B44208D02B6896
:103A8000395D1B68281C9847002801D00134F4E7F1
:103A9000201CF8BD7047031CFC33196ADA69914297
:103AA00003D01B6AC018007E01E00120404270472D
:103AB000031CFC33D8691B6AC01A01D50130FF30E2
:103AC00070470000F7B50193FA239B008360134B06
:103AD0008026002576000833041C0F1C4560291C35
:103AE00000920360321C183005F00CFF231C90225A
:103AF000FC335200DD61A0181D62321C291C05F048
:103B000001FF87229200A3185D60019A9D60009BCF
:103B10002761A575201C23756275FEBD40AB0000B2
:103B200070B50D49041C006901F036FA206901F0F6
:103B3000EEF81826207D331C4343084D0821EB186E
:103B4000595602F065FF607D08214643AD1969565C
:103B500002F05EFF70BDC046A086010068AB0000A9
:103B60008A2387229B009200C154831800225A6046
:103B70009A60012383757047031CFC335A6810B5A3
:103B800001329C68D2B2A24202D05C6801555A60F0
:103B900010BDF7B501930023041C151C181C9A4294
:103BA00031D0221CFC32D36120691362012201F062
:103BB000EBF8002825D0206901F055F9271C1837AB
:103BC000011C381CFFF7D8FF01262069AE420ED039
:103BD00001F0BAF80221206901F0C0F8206901F073
:103BE00042F9011C381CFFF7C7FF0136EDE701F071
:103BF000A2F8019B002B05D02069032101F0AEF84B
:103C000000E0051CE8B2FEBD08B50123FFF7C1FFC7
:103C100008BD10B5827D00239A420DD08724A400F0
:103C20000219546892680134E4B2944204D02130FD
:103C3000FF30FFF7A1FF0123181C10BD031CFC334C
:103C400099685A68914206D09A68805C9A680132F5
:103C5000D2B29A6001E001204042704770B5002264
:103C60008A2382759B00041C0E1CC15C006901F054
:103C70008BF8002805D12069032101F06FF8022597
:103C800023E090235B00E01887239B00E218516833
:103C90009368CB1A01D50133FF33002B0ED0256971
:103CA000FFF7CCFFC1B2281C01F09DF80028E8D135
:103CB0002069032101F052F8032506E01D1C002EA7
:103CC00003D02069032101F049F8281C70BD08B514
:103CD0000121FFF7C3FF08BD08B51830FFF7AEFF9D
:103CE00008BD38B5041C006901F09BF8002800D11C
:103CF00084E0206901F0A3F800280ED1206901F0CA
:103D0000A8F800281FD0206901F09EF800281AD0DA
:103D1000206901F0A3F8002815D1206901F014F8FA
:103D20002069032101F01AF88C239B00E558002D2F
:103D300004D02368201C1B699847A847FC34002343
:103D4000E36123625AE0206901F083F8031C2069D3
:103D5000002B19D000F0F8FF2069032100F0FEFFCE
:103D6000206901F07BF8002848D087229200A31830
:103D700000225A609A600123A3758B239B00E358AD
:103D800093423BD0984739E001F054F8002835D0F1
:103D9000206901F063F8002816D087239B00E21801
:103DA00051689368CB1A01D50133FF33FF21002BF3
:103DB00005D090225200A018FFF740FFC1B2206941
:103DC00001F022F8A07519E0231CFC33DA691B6AA4
:103DD0000132D2B220699A4202D100F0ACFF09E070
:103DE00001F041F8011C201C1830FFF7C5FE2069C6
:103DF00000F0AAFF2069032100F0B0FF38BD0000E9
:103E000008B50248FFF76DFF08BDC046C801002095
:103E100008B50348034914221523FFF753FE08BDD4
:103E2000C80100207405002008B5024802F0ACFA71
:103E300008BDC046B804002008B5024802F0A4FA44
:103E400008BDC046FC030020F7B5164F1649381CC4
:103E500000F0D2FE1549164800F0CEFE154916486E
:103E600000F0CAFE1549164800F0C6FE154916486E
:103E700000F0C2FE154D03260124281C144900F051
:103E8000BBFE391C0096231C01940022114802F04D
:103E90009BF90096291C01941F221E230E4802F054
:103EA00093F9F7BD7805002000080042000C00429D
:103EB0007C05002000100042800500200014004214
:103EC00074050020001800428405002088050020A9
:103ED000001C0042B8040020FC0300200000000089
:103EE000F0B5474680B48AB0041C0D1C00F058F8A9
:103EF000254A0023D3569046061C0F1C013305D0DB
:103F0000201C291C00F008FE002805D1301C391C9B
:103F10000AB004BC9046F0BD201C291C00F0F8FD3E
:103F2000184B174A02F050FF0028EFD001230093EE
:103F3000164B1748019300230893049405950294A7
:103F4000039500F01DFE42460023D35606900791CC
:103F5000022B0AD0684600F00FFE002805D0089B0F
:103F6000002B07D1069E079FD0E705F07DFC21239B
:103F70000360F4E705F078FC089A0260F2E7C046B7
:103F8000000000000000F03F3800002088AF000073
:103F90008CAF0000C046C04608B500F025FA08BD49
:103FA000F0B557464E46C0B4BF4B4E0089B081466F
:103FB0000F1C8A4676089E4217DDBC49041C761801
:103FC0003443391C002C24D04A463B1C05F026F80B
:103FD000021C0B1C04F028F9021C0B1C101C191CE1
:103FE00009B00CBC91469A46F0BDB14B9E4225DC0F
:103FF000B04B9E4200DD61E18C4B8B4A03F0F8FD33
:104000008B4A8C4B02F0E0FE002817D04A463B1C3E
:10401000E4E7894A894B04F071FD894A894B041C05
:104020000D1C4846391C04F069FD021C0B1C201CA9
:10403000291C03F0DDFD021C0B1CCFE74846391C90
:1040400000F066FD021C0B1C79487A4904F0E6FF7B
:104050007D4A7E4B04F052FD7D4A7E4B041C0D1CB4
:1040600004F04CFD7C4A7D4B03F0C2FD221C2B1C4E
:1040700004F044FD7A4A7B4B04F0D0FF221C2B1C39
:1040800004F03CFD784A794B03F0B2FD221C2B1C56
:1040900004F034FD764A774B04F0C0FF221C2B1C41
:1040A00004F02CFD744A754B03F0A2FD221C2B1C5E
:1040B00004F024FD724A734B02900391201C291CCA
:1040C00004F01CFD704A714B04F0A8FF221C2B1C4D
:1040D00004F014FD6E4A6F4B03F08AFD221C2B1C6A
:1040E00004F00CFD6C4A6D4B04F098FF221C2B1C55
:1040F00004F004FD4E4A4F4B03F07AFD0490059105
:10410000201C291C00F074FA6B4B009001919E4218
:1041100068DC009A019B0022161C1F1C0098019964
:10412000021C0B1C03F064FD049A059B069007918A
:104130000298039904F078F8021C0B1C0698079962
:1041400004F0DCFC321C029003913B1C301C391C37
:1041500004F0D4FC021C0B1C201C291C04F05EFF84
:10416000321C041C0D1C3B1C0098019903F040FDFF
:10417000021C0B1C201C291C04F056F8021C0B1CF2
:1041800003F036FD021C0B1C2D482E4904F046FF9F
:10419000021C0B1C0298039904F040FF321C041C03
:1041A0000D1C3B1C301C391C03F022FD021C0B1C97
:1041B0003B483C4904F032FF021C0B1C201C291C0C
:1041C00004F02CFF021C0B1C3548364904F026FF76
:1041D000021C0B1C5146002900DDFFE68021090668
:1041E0005B18FBE6049A059B0298039904F01CF8FF
:1041F000021C0B1C0098019904F080FC009A019BA2
:1042000003F0F6FC021C0B1C03F0F2FC0C4A0D4BF5
:1042100004F004FF021C0B1C0748084904F0FEFED2
:10422000021C0B1CD6E7C0469C7500883CE4377E18
:10423000000000000000F03F182D4454FB21F93F1E
:10424000075C143326A6913C000000000000E03F0C
:1042500009F7FD0DE13D023F88B20175E0EF493FEE
:104260003B8F68B52882A43F5544880E55C1C93F8D
:104270007D6FEB0312D6D43F555555555555C53F67
:1042800082922EB1C5B8B33F59018D1B6C06E63F33
:10429000C88A599CE52A00404B2D8A1C273A0340C6
:1042A000182D4454FB21E93FFFFFEF3F000010C0F1
:1042B000FFFFDF3FFFFF3F3E3233EF3F4A463B1CED
:1042C00004F01CFC334B324A041C0D1C04F016FC99
:1042D000314A324B03F08CFC221C2B1C04F00EFCE8
:1042E0002F4A304B04F09AFE221C2B1C04F006FCD3
:1042F0002D4A2E4B03F07CFC221C2B1C04F0FEFBF1
:104300002B4A2C4B04F08AFE221C2B1C04F0F6FBDB
:10431000294A2A4B03F06CFC221C2B1C04F0EEFBF8
:10432000274A284B00900191201C291C04F0E6FB31
:10433000254A264B04F072FE221C2B1C04F0DEFBE7
:10434000234A244B03F054FC221C2B1C04F0D6FB04
:10435000214A224B04F062FE221C2B1C04F0CEFBEF
:104360001F4A204B03F044FC021C0B1C00980199CF
:1043700003F05AFF021C0B1C4846391C04F0BEFB1C
:104380004A463B1C03F034FC021C0B1C26E6C046CC
:1043900009F7FD0DE13D023F88B20175E0EF493FAD
:1043A0003B8F68B52882A43F5544880E55C1C93F4C
:1043B0007D6FEB0312D6D43F555555555555C53F26
:1043C00082922EB1C5B8B33F59018D1B6C06E63FF2
:1043D000C88A599CE52A00404B2D8A1C273A034085
:1043E000000000000000F03FF0B55F464D46444637
:1043F0005646F0B4041C50420D1C104359004908A5
:10440000C00F884601438946774985B0161C1F1C9A
:104410009B46009401958C46894527D80198410018
:104420004908039000988946009940420843C00F0C
:1044300049460143614519D86C48C01810434BD018
:1044400099170220084082460198C10F5046084340
:10445000824600984946084317D1504602285BD04F
:1044600011DC002811DB201C291C05E0301C391C44
:10447000221C2B1C03F0BCFB05B03CBC90469946AB
:10448000A246AB46F0BD032835D04046024305D1D5
:104490000399002946DB3F493D48EDE7524B9845DB
:1044A0001FD0514B99453AD048464146431A1B15F7
:1044B0003C2B23DD374936485346012B40D0022B95
:1044C00033D0002BD8D0344A344B04F0A7FD344A03
:1044D000344B04F0A3FDCFE7201C291C00F070F939
:1044E000CAE7C14535D05046012842D03CDD0228FC
:1044F00012D00328D5D12C482C49BDE75A46002AB2
:1045000022DB321C3B1C201C291C03F08DFE00F01A
:10451000FFFA00F055F9CFE721482249ACE7039AAA
:10452000002AB8DA22482349A6E71B4A1B4B04F0AD
:1045300075FD021C0B1C1A481A4904F06FFD9BE71D
:1045400080242406091997E73C33DADA1A481B4914
:10455000B2E75246012A17D00EDD022A11D0032AF3
:10456000DDD11748174987E700289AD11248134927
:1045700082E7154815497FE7002AD0D1144815492C
:104580007AE71548154977E71548164974E7C04694
:10459000182D4454FB21F93F075C143326A6A13C97
:1045A000182D4454FB210940182D4454FB2109C007
:1045B000182D4454FB21F9BF00000000000000004A
:1045C000D221337F7CD902C00000000000000080AF
:1045D000182D4454FB21E93FD221337F7CD902407E
:1045E000182D4454FB21E9BF0000F07F000010C0EB
:1045F000F0B55F4656464D464446F0B46C4E0D1C31
:10460000371C83B0041C021C0B1C2F40B74200D186
:10461000ADE0002900DC8BE02F1500D194E0654D62
:1046200009038023090B5B037F190B43FE0700D5A9
:1046300070E07F10C20FB8465B00002780219B18F6
:104640001624420000970020890345189D4204DC8F
:1046500068185B1B009D6D180095D50F5B00013C31
:104660005B1952004908002CEFD180210026090671
:1046700020250196B446894609E0834246D0D40FEE
:104680005B00013D1B1952004908002D1CD06646F5
:104690008C198342F1DD6718E60FBC46F6078246A7
:1046A0004E452CD01B1AA24280414042019F1B1A4A
:1046B000121B7F18D40F5B00013D019750461B1958
:1046C00052004908002DE2D1134328D10198430834
:1046D000009D394E6A109219ED0702D58021090616
:1046E0000B4340460705B9181C1C0D1C201C291C37
:1046F00003B03CBC90469946A246AB46F0BDFF0FC6
:10470000FF077E427E41B2468244CBE79442C2D943
:10471000181CB4E7C20F5B009B18400089E70199A1
:1047200001312FD0019C012323401B195B08CFE7E7
:104730006B005B081A43D9D0002700292BD1C10A8E
:10474000153F40050029FAD08022520311421ED1A4
:104750000023490001331142FBD001242022E41A36
:10476000D21A3F19041CD4402143984057E7201C1B
:10477000291C04F0C3F9221C2B1C03F039FA041C79
:104780000D1CB3E7009A002301320092A0E720221B
:1047900001240023E5E7221C2B1C201C291C04F00B
:1047A0003DFC021C0B1C03F03FFD041C0D1C9DE78F
:1047B0000000F07F01FCFFFF0000E03F0000000070
:1047C000F8B556464D4644465F46C54BF0B44E00DC
:1047D000814688468A4676089E420CDDC14B9E4241
:1047E00000DDA7E000D1A2E05046BF4A002800DC6F
:1047F000E3E0BE4BA6E0BE4B9E4200DDB8E0BD4B01
:104800009E4200DCA6E001246442A3464A46434699
:104810004846414604F072F9061C0F1C321C3B1C32
:1048200004F06CF98F4B8E4A041C0D1C04F066F9E1
:104830008D4A8E4B03F0DCF9221C2B1C04F05EF930
:104840008B4A8C4B03F0D4F9221C2B1C04F056F934
:10485000894A8A4B03F0CCF9221C2B1C04F04EF938
:10486000874A884B03F0C4F9221C2B1C04F046F93C
:10487000854A864B03F0BCF9321C3B1C04F03EF920
:10488000834A844B061C0F1C201C291C04F036F99B
:10489000814A824B04F0C2FB221C2B1C04F02EF92F
:1048A0007F4A804B04F0BAFB221C2B1C04F026F933
:1048B0007D4A7E4B04F0B2FB221C2B1C04F01EF937
:1048C0007B4A7C4B04F0AAFB221C2B1C04F016F93B
:1048D000021C58460B1C013000D170E05946CC0038
:1048E000301C391C03F084F94A46434604F006F9AB
:1048F000814D0B1C81492D19021C0C19101C191C0F
:104900002268636804F08AFB4A46434604F086FB4B
:10491000021C0B1C2868696804F080FB021C5046CE
:104920000B1C00280EDA802000060B180AE0002875
:1049300000D159E74A4643464846414603F058F9F4
:10494000021C0B1C101C191C3CBC90469946A2462C
:10495000AB46F8BD584A594B03F04AF9584A594BEF
:1049600002F032FA002800D14DE74A464346E9E713
:1049700000F0CEF8624B041C0D1C9E4230DC614BF3
:104980009E4256DC221C2B1C03F032F94C4A4D4B44
:1049900004F044FB4C4A4D4B061C0F1C201C291CE8
:1049A00003F026F9021C0B1C301C391C03F03CFCE4
:1049B0008846002181468B4628E7534BC2E7301CCE
:1049C000391C03F015F94A46434604F097F8021CD7
:1049D0000B1C4846414604F021FB021C0B1CB1E7AE
:1049E0004A4B9E421ADC3A4A3A4B04F017FB384ACB
:1049F000384B061C0F1C201C291C04F07FF8304A81
:104A0000304B03F0F5F8021C0B1C301C391C03F072
:104A10000BFC8146022088468346F7E62E482F4944
:104A2000221C2B1C03F000FC8846032181468B4688
:104A3000ECE6234A234B04F0F1FA214A214B061CF1
:104A40000F1C201C291C03F0D3F80B1C021C391C62
:104A5000301C03F0E9FB0123814688469B46D5E6DE
:104A600011DA22E33AAD903FEB0D76244B7BA93F60
:104A7000513DD0A0660DB13F6E204CC5CD45B73F2E
:104A8000FF8300922449C23F0D5555555555D53FDA
:104A90002F6C6A2C44B4A2BF9AFDDE522DDEAD3FCE
:104AA0006D9A74AFF2B0B33F711623FEC671BC3F6E
:104AB000C4EB98999999C93F9C7500883CE4377E6E
:104AC000000000000000F03F000000000000004077
:104AD000000000000000F83F000000000000F0BFF0
:104AE000FFFF0F440000F07F182D4454FB21F93FD5
:104AF000FFFFDB3FFFFF1F3EB0AF000090AF0000A5
:104B0000FFFFF23FFFFFE53FFB21F9BFFF7F0340BF
:104B10004B0059087047C0460B1C011C021C30B5E5
:104B200019430220002900D130BD802109068B42A3
:104B300016D00D4904205C180C498C42F4D90C4D58
:104B40005C198C42F0D90B4C590049080320A14252
:104B5000EAD9074C0020A142E6D150425041E3E798
:104B6000002AE1D0EFE7C0460000F0FFFFFFDF7F43
:104B70000000F07FFFFF0F000020704700000000E2
:104B8000024901487047C046000000000000F87F5D
:104B9000F7B58A18061C0D1C01920C1C019B671BA3
:104BA0009C4207D0336821781B68301C9847013439
:104BB0000028F3D1381CFEBD38B5051C0C1C081E9E
:104BC00007D004F00DFF2B68021C5B68281C211C19
:104BD000984738BD08B50249FFF7EEFF08BDC0464B
:104BE0007B9B000038B5041CFFF7E6FF051C201C6A
:104BF000FFF7F0FF281838BD01607047F7B508AC23
:104C0000267804689D1E27686C1EA541ECB29207A9
:104C100005683A4327063A432A6002680725294077
:104C20005068B501002C00D05C03294301430C43BC
:104C30005460F7BD30B50368C0251C68AD0312058C
:104C40002A402243C024A4020904214011431960D0
:104C500003685A6814435C6030BD036801211A6818
:104C60000A431A600268116801231942FBD1D16915
:104C70001942F8D17047036802211A680A431A6082
:104C80000268D3699907FCD4704703681A7ED1077C
:104C900002D41A7E9107FCD57047036800225A831C
:104CA00070470368187E4007C00F70470368187E7E
:104CB000C009704703688022197E52420A431A765F
:104CC00070470368187E0123184070470368188DE9
:104CD000C0B2704703681A7E01200242FBD01985DA
:104CE0007047036801229A757047036801221A759C
:104CF0007047036801211A680A431A600268116844
:104D000001231942FBD1D1691942F8D170470368D8
:104D100002211A680A431A600368DA699107FCD411
:104D20005A8B30218A4310210A435A830268D3697F
:104D30005907FCD470470368802219685968D20269
:104D40000A435A60704700000368034A19685968AB
:104D50000A405A607047C046FFFFFBFF30B503684A
:104D600003241D680C40074A596824040A40ED06D4
:104D700022436D0F5A60052D03D10268D36959078C
:104D8000FCD430BDFFFFFCFF49001143036830B580
:104D9000CDB2598B032409092140012904D0598B34
:104DA00009090C40022CF4D1596AC90AC9022943E5
:104DB00059620368002A03D11A7ED107FCD50DE0A1
:104DC000187E01224008104008D1197E1142F7D008
:104DD0005968C02292020A435A6003E05B8B0120AB
:104DE0009B08984330BD0368283319700268107E11
:104DF0000123184003D1518B1942F8D003E0528BA4
:104E0000181C920890437047036828331970036890
:104E100000201A7E510703D55B8B01209B08984325
:104E2000704703681868C006400F04384342584171
:104E3000C0B270470368187E4007C00F7047036810
:104E4000187E0123184070470368588BC006C00FB6
:104E500070470368187E8007C00F70470368588B3F
:104E60000007C00F704703681A68D206520F052A60
:104E700002D11A7E9107FCD528331878C0B270474A
:104E80000368224A30B5934211D0214A934211D08F
:104E9000204A934211D0204A934211D01F4A934294
:104EA00011D01F4A934230D10E2319220DE009235D
:104EB00014220AE00A23152207E00B23162204E03D
:104EC0000C23172201E00D231822DCB21549012022
:104ED0009B08A0409B0008605B180320C02189004C
:104EE00004405D58E000FF248440A5432C1CC025ED
:104EF0008540281C204358508023DB011A430A4B6D
:104F00005A805A7852B2002AFBDB30BD00080042BA
:104F1000000C004200100042001400420018004241
:104F2000001C004200E100E0000C0040F8B5041C49
:104F3000151C0E1C1F1CFFF7A3FF201CFFF78DFE86
:104F4000B1001C220A4069072368090C0A431A6051
:104F5000226884239375012E1AD10821012D00D1D6
:104F600010210C4B79431868C00001F053FE2368F0
:104F700007219A890140D2044903D20C0A439A813D
:104F800023680004C20C9889400B400310439881A9
:104F9000F8BDC046B800002070B5041C0E1CFFF719
:104FA0006FFF201CFFF7A5FE236814221A600D4B2B
:104FB00071001D682468281C01F02CFE0A49061C9B
:104FC000281C01F027FE7D23FA215843C90001F077
:104FD00021FE301AE668FF23053818409E43064339
:104FE000E66070BDB800002040420F003F207047CF
:104FF00013B502686B46D97107335468191C012236
:10500000A04716BD08B50069022100F041FC08BDAB
:1050100008B50069032100F051FC08BD38B50D1C2E
:10502000041C131C006903212A1C00F043FD002806
:1050300001D10123636038BD10B5054C23685A1CAB
:1050400004D103685B6998472060031C181C10BDDD
:105050008C000020074A08B51368591C04D00121B0
:1050600049421160181C03E00069022100F014FDA0
:1050700008BDC0468C00002008B503780349023300
:1050800003704222024800F0CBFD08BD480000201A
:10509000570A002010B50178031C42780020A1298E
:1050A00008D1212A2FD118481849072200F0B8FD4D
:1050B000012028E0212926D1202A05D113490722E1
:1050C000114800F041FC04E0222A10D19A780F4BDD
:1050D000DA710E4B96221968D200914210D1DC7918
:1050E00001231C400CD1FA2001F0F4FC0AE0232A31
:1050F00009D1DA789B7812021A43054B1A6002E054
:1051000001F0EEFC002010BD570A00203C000020FA
:105110004400002070470000064BFA218900996086
:10512000054900220831196004495A6019611A764C
:105130007047C0468C050020E0AF0000570A0020F1
:1051400010B507230F220240141C00093034092A2D
:1051500000DD0734CC54013BF4D210BD70B5822978
:105160001ED1C2B22A495301CB189D69294C800136
:105170002C40C025AD052C439C61274C08322018DB
:1051800058610B68520199180C79802040422043E5
:105190000871D15C7020814330200143D15435E047
:1051A000002933D1C2B21A495301CB189E68194D58
:1051B000C0242E40A40526439E60184E8001096835
:1051C0003018083258605201505C0726B04301265F
:1051D000304350549E6935402C439C610E4C5C61B9
:1051E000505C7024A0431024204350549C680C4809
:1051F0008A182040802464032043986098684021E6
:10520000800B8003986053790B43537170BDC04687
:10521000600A0020FFFFFF8FB406002078080020FE
:10522000FF3F00F038B5041C08CC01211A78051C9A
:105230000A431A708022201C0021520004F062FBF5
:105240002B689A78D107FCD45C6238BD134BF0B55B
:105250001B6899035A029B01C90ED20E5B0F1F29CE
:1052600000D105211F2A00D11D22072B00D10323C5
:1052700004688E01278D0A491F2539403143218555
:1052800001682A400C8DAC4322430A850268190349
:10529000108D044B03400B431385F0BD2460800048
:1052A0003FF8FFFFFF8FFFFFEFF310830360012341
:1052B000436072B670470368002B02D162B6BFF339
:1052C0006F8F704737B50569041C6846002D12D1F1
:1052D000FFF7EAFF019B013B03D3621DD57FEDB2CF
:1052E000F9E768460193FFF7E6FF0020854217D0F3
:1052F000206AE36913E0FFF7D7FF019B0025013B1C
:1053000004D3221C34321578EDB2F8E768460193D5
:10531000FFF7D1FF0020854202D0206BE36AC01A5C
:105320003EBD0000436810B51A68037A01215B0195
:10533000D318FF339A7A0A439A72037A42685B0160
:10534000D318C2689C6891040B4A090922400A4399
:105350009A60037A42685B01D3189A684021920BE5
:1053600092039A6043681A68037A08335B01D31882
:105370001A790A431A7110BDFF3F00F0F7B50569AD
:10538000041C0E1C171C6846002D1FD1FFF78CFF54
:10539000019B013B5A1C06D0621DD17F5A1E002979
:1053A0003AD0131CF6E768460193FFF784FF002507
:1053B000E369BD4235D0226A934232D25A1CE2617F
:1053C000A269D3181B7873550135F1E7FFF76CFF1D
:1053D000019B013B5A1C08D0221C343215785A1EFE
:1053E000EDB2002D18D0131CF4E768460193FFF7C7
:1053F00062FF0025E36ABD4226D0226B934241D36F
:1054000022E0621D0021D17730321678581E8E427C
:1054100014D1031C5A1CF4D168460193FFF74BFFCB
:1054200038E0226A934235D10023E36101232361EE
:105430006846FFF739FF019B013BEBE71170201C29
:105440000193FFF76FFFF6E7226B934222D100230F
:10545000E36223616846FFF727FF019B013B5A1C6B
:10546000DAD0221C34320021117001321678581E15
:105470008E4201D1031CF2E71170201C0193FFF74B
:1054800051FFEAE75A1CE262A26AD3181B787355EF
:105490000135AFE7281CFEBD37B54368027A1B68AB
:1054A000083252019A18041CD0790123FF211842B6
:1054B00055D0D371A068656962680140002D1FD185
:1054C0004901521891688904890C2162216A0029D6
:1054D00042D06361A36A68465360FFF7E5FE019B13
:1054E000013B5D1C34D0621D0120D0772F32117832
:1054F0005D1EC9B21218002915D111702B1CF0E7DE
:105500004B01D3189A689204920C2263226B002AF2
:1055100022D000226261A26968465A60FFF7C4FE89
:10552000019B013B12E0019310706846FFF7C3FE38
:1055300015E0221C343201201070621DD17F5D1EE7
:10554000C9B230320029EED111702B1C5D1CF0D194
:1055500068460193FFF7AFFE201CFFF7E3FE37BD5F
:1055600037B500236C46E3710734201C0D1CFFF790
:1055700083FD2B681818286001F030FB211C01F016
:10558000E7FA2B681818286020783EBD03290BD154
:105590000D4BB2221B685200985C802149420143A6
:1055A0009954022168220CE001290CD1064B922269
:1055B0001B685200985C80214942014399540221A2
:1055C0002822FF3299547047600A002038B5304BCA
:1055D00000240121051C1A201C7001F08FF91A20EB
:1055E000012101F0E5F92B4B192001211C7001F07C
:1055F00085F91920012101F0DBF9274B2021DA6917
:1056000001200A43DA61254B06241A7802431A70F6
:10561000234B0F221978914319701978214319707F
:1056200020490C782043087019780A401A701A78BB
:1056300060210A431A701C4B1C4A5A805A78D209BE
:10564000FCD11B4800F0B8FF1A4C201CFFF7EAFD04
:10565000201CFFF7FBFD23687F2219780A401A708F
:105660001A7804210A431A701A890C218A431A8174
:10567000C121114A890050580002000A505080216F
:1056800011601A7802210A431A7001232B7038BD69
:10569000740800205C0A00200004004058440041C7
:1056A0003C44004159440041000C004006400000C9
:1056B000E5600000600A002000E100E000780028BA
:1056C00010D0094B01211B681A898A431A811A8B51
:1056D00008210A431A831A8B04210A431A83034BB5
:1056E00000221A607047C046600A0020640B002048
:1056F0000F4B9A69920B92039A611B680222FF3347
:105700001A7298798022524202439A711A7A90074B
:10571000FCD5084B081C997A7F2210409143014325
:105720009972997A802252420A439A727047C0460F
:10573000600A00200050004110B50B790C1C002BB2
:105740000BD1081CFFF7A6FC002804D1094B9A696D
:10575000920B92039A6101200BE001F03FFA211CA9
:1057600001F02AFA0028F6D1024B9A69920B9203B3
:105770009A6110BD600A0020F7B50E1C832A18D16B
:10578000CAB235495301CB189C693448B601204050
:10579000C024A405204398613148083286195E610F
:1057A0000B685201D15C7020814340200143D154E9
:1057B00050E0022A4AD12B4A89008D580191002DD0
:1057C00048D1382000F042FF274B80270360224B4E
:1057D0007F004360431D0562866005614561C561C8
:1057E000C760DD772F33041CC56205631D70381C4C
:1057F0005D7004F065F8A061381C04F061F8FF23C7
:1058000015491E407601A0628E19B168134A07251A
:105810000A40C02189050A43B260A1686268194044
:10582000126808314901885CA8430325284388543D
:10583000A268616813405B01A269CB185A60201C02
:10584000FFF770FD019B07495C5003E0081C111C29
:10585000FFF784FCF7BDC046600A0020FFFFFF8F02
:10586000B4060020380A002010B0000038B5051C2E
:105870000124064BA200D258002A06D0211C281C65
:105880000134FFF779FFE4B2F3E738BD9000002060
:1058900008B5084B8A00D058002803D003689B68DD
:1058A000984706E0C9B2044B49015918886880043A
:1058B000800C08BD380A0020600A002010B50C1CBE
:1058C000FFF7E6FF00280CD0064BE1B21B68083159
:1058D000490159184A7980235B4213434B710223D3
:1058E000CB7110BD600A002070B5CAB2134B1448CA
:1058F000540189015918031959609D6811490832EA
:1059000029408025AD022943996099684026890B7A
:10591000890399600368510159180D7935430D7158
:105920005101591889794D06FAD551015918C9798B
:10593000CD07FAD50419A068C0B270BD7808002060
:10594000600A0020FF3F00F038B50C4B141C1B68A8
:105950000D1CFF335A7940210A435A710021FFF789
:10596000C3FFA04200D9201C0023A34204D0044A54
:105970009A5CEA540133F8E738BDC046600A00205B
:105980007808002010B5C9B20C48490143189A683C
:105990009204920C3F2A08D9141C9A68403CA40433
:1059A000920BA40C9203224302E09A68920B92039A
:1059B0009A6041188868C0B210BDC046600A0020D5
:1059C000F0B51C1C2F4B85B01B68061C0D1C0292E9
:1059D000002B51D02C4F3978C9B2002902D119209F
:1059E00000F0E6FF64233B70284BAA00D058002843
:1059F00005D0036802995B68221C984740E0301C80
:105A0000291CFFF745FFA04204D2301C291CFFF7D8
:105A10003FFF041C291C301CFFF7B4FF1C4FE9B2E8
:105A20004A010191396803928B18FF335A7A012198
:105A30000A4318495A72AB01C9180298221C03F094
:105A400058FF002C1BD0301C291CFFF721FF002819
:105A500015D1019B3A6808335B01D31819794020AE
:105A6000014319710121D97103995318FF339A7AAF
:105A700001210A439A7202E00120404200E0201C0A
:105A800005B0F0BD640B00205C0A0020380A00203D
:105A9000600A00207808002013B56C460734221CE9
:105AA0000123FFF78DFF012801D1207801E00120BB
:105AB000404216BDF0B51C1C3F4B85B01B680E1C48
:105AC0000292002B6AD08023DB019C4266D83B4DBA
:105AD0002978C9B2002902D11A2000F069FF642395
:105AE00000222B700092002C56D0354DF7B22B6857
:105AF00001933B1C0833019A5B01D3189B79DB09A6
:105B00001AD0304B3049186801F084F82F4B172118
:105B1000584301F07FF83B1C0833019A5B01D3180E
:105B2000DB799A0708D42A4B9A5D002A38D1421EA5
:105B3000002835D0101CEEE7254B00229A55251E73
:105B40003F2D00D93F25234AB301D318181C0299D1
:105B50002A1C039303F0CDFE194A7B01D318039A44
:105B6000A9045A619A69890C920B92030A439A61BB
:105B70003B1C019A08335B01D3180222DA71597970
:105B8000802252420A435A71009B029A5B195219B1
:105B90000093641B0292A6E700980BE0012008E046
:105BA00001229A557B01ED18AB69101C9B0B9B03DE
:105BB000AB61404205B0F0BD640B002074080020CA
:105BC000600A0020B800002040420F007011010060
:105BD000AC060020B406002070B50E4D1C1C8B01D5
:105BE000ED18281C0E1C111C221C03F082FEF6B2BC
:105BF0000949760189194D618A69084B201C1340B7
:105C00008B618B69A2049B0B920C9B0313438B61EA
:105C100070BDC046B4060020600A0020FF3F00F0BF
:105C2000F7B5114B01901B780F1C141C002B19D1D8
:105C30000E4B1E78002E01D1151C08E00C4D0D48AE
:105C40002E888019361903F054FE2E800AE0002DAC
:105C500008D0BA192B1C01980021FFF7BDFF361898
:105C60002D1AF4E7201CFEBD560A0020540A00201D
:105C7000AA060020A9050020F8B50E1C00AF151ECD
:105C8000012D28D9D31DDB08DB006A46D21A9546C0
:105C9000081C03F0A5FE01306C4640000323207071
:105CA00063700222AA420ED23378002B0BD0511C13
:105CB000C9B20136A354A94204D00023023263546E
:105CC000D2B2EFE72A1C0548211CFFF7A9FF431EAB
:105CD0009841C0B200E00020BD46F8BD570A002040
:105CE00008B5044B00221A70034B04491A88FFF7C9
:105CF00097FF08BD540A0020AA060020A90500202D
:105D0000F0B5204A87B001230026009102A9137044
:105D1000051C0296FFF724FC03AC092701903A1CEE
:105D2000201C311C03F0EEFD02236370A023E371FD
:105D3000FA232372029B0122DB196380019B6271AB
:105D40002371104A009B27701670BB4205D1281C96
:105D5000211C1A1CFFF764FF11E00B4B01221A7083
:105D60000A4B211C3A1C281C1E800296FFF758FF84
:105D7000281C02A9FFF7F4FB281CFFF7B1FF012044
:105D800007B0F0BD560A0020540A0020AA060020E1
:105D900070B5CE7892B0051C0C1C022E08D1C988B3
:105DA0002D48FFF7ADFF031C581E8341D8B251E0C8
:105DB00000F014FF211C00F0E0FE002803D0C31700
:105DC0001B1AD80F46E0012E04D1E2882349112A7C
:105DD0003BD837E0032E3DD1A278002A05D12049D7
:105DE000E2880B7893422DD82FE0022A03D1A279C2
:105DF000281C1C4904E0012A05D1A2791A49281C53
:105E0000FFF73AFF26E0032A24D1184B01A91868AE
:105E1000FFF796F9164B03A91868FFF791F9154B90
:105E200005A91868FFF78CF9134B07A91868FFF745
:105E300087F900F0D3FE09A900F0AFFEA279281C73
:105E400001A9DDE7D2B2002A00D10A78281CFFF7A9
:105E5000E7FE012012B070BD570A00202EB00000EE
:105E60002AB0000040B0000020B000000CA080006C
:105E700040A0800044A0800048A0800073B5051CAD
:105E800048780C1C0B2878D800F0BAFE081C77283C
:105E9000773E4306474B686F00206FE0097801AA00
:105EA000002903D111705170281C09E000231370E0
:105EB0005370334B1B78012B00D11370281C002129
:105EC00002234FE08A780023012A04D101AA13702B
:105ED00053702C4BEEE72A4A137049E08E78012E5E
:105EE00007D1284B01AA00211E701170281C331CF9
:105EF00038E0002E08D1224A01231370224A91690A
:105F0000890B8903916138E0A178281CFFF7F0FB29
:105F100033E0281CFFF73CFF30E0281C00211B4A1F
:105F20001FE00A780020D30628D1281CFFF79EFC2A
:105F3000A2781549154B02241A600A682A23FF33F8
:105F4000D05C2043D0544A20FF30145C01231C4312
:105F500014548A69920B92038A610EE00C4A281C41
:105F600000210123FFF738FE07E08A78084B1A600A
:105F7000054B9A69920B92039A61012076BDC04647
:105F8000A8050020550A0020600A0020640B0020AC
:105F9000580A0020F8B54B4B071C1C78002C00D089
:105FA0008FE0494D2868838B19070ED5201C211CD2
:105FB000FFF7D4F82B6810201A1CFF32917A0143A6
:105FC0009172424A146008229A832B689A8B500778
:105FD0001FD504229A833E4B1A78002A0AD01A78D9
:105FE000013AD2B21A701B78002B03D11A2001217A
:105FF00000F0DEFC374B1A78002A0AD01A78013AF2
:10600000D2B21A701B78002B03D11920012100F0A5
:10601000CFFC2B68FF331A7AD10626D510221A72CC
:106020005A7940210A432C495A710A786023381C56
:106030001A4202D1FFF722FF01E0FFF77DFB0028A3
:1060400006D02B688022FF33997952420A4301E03F
:10605000224B20229A712B68FF331A7A500604D5FE
:1060600040221A72597A0A435A722968FE230E8C0A
:1060700000241E40E1B2002E23D0321C0123224115
:106080001A4216D0221C2868083252018218D07990
:10609000184203D1D279DA401A4207D0104BA2003D
:1060A000D058002809D003681B6898470123A340F3
:1060B0009E430134092CDDD103E0381CFFF766FA5A
:1060C000F4E7F8BD540A0020600A0020640B0020A9
:1060D000740800205C0A002078080020FF5000416E
